:020000040001F9
:1080000068300020F58001000F810100118101001E
:108010000000000000000000000000000000000060
:1080200000000000000000000000000013810100BB
:108030000000000000000000158101001781010010
:108040001981010019810100698501001981010070
:108050001981010000000000458201001981010022
:108060001981010019810100A18401001981010019
:108070001981010019810100198101001981010094
:1080800019810100D18301001981010019810100CA
:10809000F9830100198101000184010019810100A7
:1080A000198101001981010000000000000000009A
:1080B00000000000000000000000000000000000C0
:1080C0000348854600F08EF80048004711C10100C2
:1080D00068300020401E00BF00BF00BF00BF00BFCF
:1080E00000BF00BF00BF00BF00BF00BF00BFF1D195
:1080F000704700000321094802680A4302600848EB
:1081000002680A4302600748804707480047FEE7C5
:10811000FEE7FEE7FEE7FEE7FEE70000240500407D
:10812000540500403D840100C180010030B50B467C
:10813000014600202022012409E00D46D5409D4241
:1081400005D31D469540491B2546954040191546C7
:10815000521E002DF1DC30BD70B5002425460028EC
:1081600001DA01244042002901DA01254942FFF7E2
:10817000DDFFAC4200D04042002C00D0494270BD2F
:1081800003460B439B0703D009E008C9121F08C030
:10819000042AFAD203E00B780370401C491C521EDB
:1081A000F9D27047D2B201E00270401C491EFBD2E6
:1081B00070470022F6E710B513460A4604461946F2
:1081C000FFF7F0FF204610BD30B5044600200346FF
:1081D00000E05B1C934203D2E05CCD5C401BF8D016
:1081E00030BD0000064C0125064E05E0E36807CCD3
:1081F0002B430C3C98471034B442F7D3FFF764FF8D
:1082000048E3010068E3010030B58C180278401C97
:1082100013071B0F01D10378401C120906D1027805
:10822000401C03E005780D70401C491C5B1EF9D111
:1082300001E00B70491C521EFBD1A142E6D3002085
:1082400030BD0000F0B587B0002600200690FF206A
:10825000013005900125002416E0059804F00AFA83
:1082600000280BD000BF564840682840002805D0A1
:10827000059804F0F7F93046284306466D00059846
:10828000001D80B20590641C042CE6D3FF207D30D5
:1082900004F0F0F900280AD0FF207D3004F0E2F964
:1082A0000120C007064300BF46480069069030071A
:1082B000000F00282AD00125002425E02846304060
:1082C00000281FD000BF4048512109014018A100DB
:1082D00040581F2109020840000A049000BF3A4894
:1082E000512109014018A100405803210904084008
:1082F000000C0390204601F0CBFE0746039904983A
:10830000B84700BF6D00641C042CD7D3F00FC00722
:10831000002852D000244EE02C480057401C002872
:1083200048D02A48005D0490C0210498884307463D
:10833000384601F0F1FE029001F0AAFE0390039886
:10834000002836D0C02104980840801102900120F6
:10835000B840054600BF0520000707210902401864
:10836000B9004058032109040840000C0190069808
:108370002840002802D00198022806D006982840FC
:10838000002815D10198032812D1029803280BD197
:108390000198022801D1032000E002200090384615
:1083A000009904F026F900BF3846039A02999047D5
:1083B00000BF00BF641C052CAED307B0F0BD0000A9
:1083C0000063004000050050006000407C27002052
:1083D00010B500200749086000210648416081600F
:1083E000C1600020034940390860486005F064FD21
:1083F00010BD00004011014010B505F00DFC10BD8E
:1084000070B50C480068002811D00A480068804701
:10841000044600BF2546002D07D000BF064AFF21B5
:108420002A31284600F08CFB00BF00BF01E003F0BA
:1084300019FC70BD30210020F0E2010010B503F0FE
:108440009FFC002805D0104810494860C813104907
:10845000886103F079FC002802D001200D49886072
:1084600003F0F0FC00280ED00B480068012807D06C
:108470000A480949086000BF074800680128FBD185
:10848000C0200549486110BDDFFF07C0000500405E
:10849000006C00400006004000EC064075930000B0
:1084A00010B52A48006800281BD0294840680121DF
:1084B00009040840002814D00020244908602548F9
:1084C0000068401C23490860084600682249096882
:1084D000884206D100201F49086005F047F805F0E2
:1084E0003FFA1A484068002814D019484068012112
:1084F0000904084000280DD00021144841601748A5
:108500000068401C15490860084600682D2801D104
:10851000002008600D488068002816D00C4840688C
:1085200001210904084000280FD00021074881607C
:108530000B480068401C0A49086008460068094961
:10854000884202D100200649086010BD40A10040C9
:1085500000A300400C2000201C2000201020002040
:1085600014200020AA0A00001CB5244880680028B6
:1085700018D02348406804210840002812D0002069
:108580001E4988601F488069C0B21F4908800421C5
:10859000684601701C480178684601711B490968EA
:1085A000884700BF1548C06900280BD014484068B0
:1085B00080210840002805D000201049C861032010
:1085C00004F0C6F90D48406A002816D00C484068EF
:1085D00001214902084000280FD0002007494862C5
:1085E00008488038046804600220694608700194D5
:1085F000684606490968884700BF1CBD0021004045
:108600000023004000250040AA200020B0200020C8
:1086100030B47446641E2578641CAB4204D3635D99
:108620005B00E31830BC18471D46F8E7002805DB5F
:10863000C206D20E01219140014A1160704700002C
:1086400080E200E0002805DBC206D20E0121914045
:10865000014A11607047000000E100E0002805DBDE
:10866000C206D20E01219140014A116070470000FC
:1086700000E100E0002805DBC206D20E0121914096
:10868000014A11607047000000E200E010B50028C8
:1086900019DB1A4A03231B02D21883089B00D25805
:1086A0008307DC0EFF23A3409A438B071B0E84072E
:1086B000E40EA3401A43114B032424021B1984081F
:1086C000A4001A5118E00E4A03071B0F083B9B0831
:1086D0009B00D2588307DC0EFF23A3409A438B07ED
:1086E0001B0E8407E40EA3401A43054B0407240F16
:1086F000083CA408A4001A5110BD000000E100E0ED
:108700001CED00E010B5002819DB1A4A03231B02F8
:10871000D21883089B00D2588307DC0EFF23A340A6
:108720009A438B071B0E8407E40EA3401A43114B98
:10873000032424021B198408A4001A5118E00E4ACD
:1087400003071B0F083B9B089B00D2588307DC0ED6
:10875000FF23A3409A438B071B0E8407E40EA3401C
:108760001A43054B0407240F083CA408A4001A511F
:1087700010BD000000E100E01CED00E002E008C8D0
:10878000121F08C1002AFAD170477047002001E08B
:1087900001C1121F002AFBD1704710B500F01AF872
:1087A00010BD000007480078022802D001200649C9
:1087B0008860064800780649C861022001490870AF
:1087C00070470000B420002000200040A8200020B6
:1087D000002500401CB501200549C8600549087006
:1087E00003206946087068460349096888471CBD2C
:1087F00000200040B4200020B020002000200549C7
:10880000087001200449C8604860002003490860DE
:1088100070470000B42000200020004000250040E8
:10882000F8B504460F46154600260020287020782B
:10883000002809D02A463946204603F03CFD06466A
:10884000002E01D03046F8BDA078002808D0294677
:10885000384600F0D5FA0646002E01D03046F2E741
:10886000E07800280ED002212A78501C2870B954D4
:1088700001212A78501C2870B954E1782A78501CBC
:108880002870B954606800280BD000206168085631
:108890002A46394605F086FB0646002E01D03046B2
:1088A000D1E7208900280CDD3B4606220221204624
:1088B0000830009505F01DFC0646002E01D030461C
:1088C000C1E7208A00280CDD3B4607220321204611
:1088D0001030009505F00DFC0646002E01D0304604
:1088E000B1E7208B00280CDD3B46152214212046E1
:1088F0001830009505F0FDFB0646002E01D03046ED
:10890000A1E7206A002809D02A463946206A01F0EA
:10891000E5FD0646002E01D0304694E7606A002847
:1089200009D02A463946606A03F090FC0646002EBC
:1089300001D0304687E72C20005D002809DD2A465B
:108940003946204604F0C4FD0646002E01D03046CC
:1089500079E7304677E70146C878042210400028BE
:1089600001D1072070470020FCE710B50122022149
:10897000002000F0F3FF044600BF002C03D0072CBA
:1089800001D0204610BD00BF07220221012000F0C7
:10899000E5FF044600BF002C03D0072C01D0204681
:1089A000F0E700BF0A220021084600F0D7FF044686
:1089B00000BF002C03D0072C01D02046E2E700BF07
:1089C0000020DFE730B5A3B0302117A8FFF7F1FB97
:1089D000022110A801770621C17724210EA8FFF7F4
:1089E000E8FB012110A8017132201290B4201390ED
:1089F000302102A8FFF7DDFB0121684601830C4905
:108A0000079100200B4B0EAA02A9009017A800F0B6
:108A10005BFA044600BF2546002D06D000BF06A223
:108A20000949284600F08CF800BF00BF23B030BDD4
:108A30000820002099C601002E2E5C2E2E5C2E2EC2
:108A40005C6D61696E2E63005E020000014600BF2E
:108A5000064A50680122D2038243044B9A600122E5
:108A6000D2030240DA6000BF7047000000050050EA
:108A700010B5002407E0E100064A1268505C0121AD
:108A800003F08EFC641C044800788442F3D3002079
:108A900010BD0000E0200020E4200020FEB50646C6
:108AA0000C461746052F01D20720FEBD03F08EFDB0
:108AB000002806D103F062FD0546002D01D02846AE
:108AC000F3E7164806601648047016480760002051
:108AD000154908601549086015E0E000801901900B
:108AE00013480068009001988078694648700199A1
:108AF0000878104A694603F0B7FC0546002D01D0FE
:108B00002846D2E700BF2046611ECCB20028E4D13F
:108B1000094A0021094800F069F8C6E7E020002072
:108B2000E4200020E8200020F0200020F420002095
:108B3000A0E2010059BB010059A80100EC2000206F
:108B4000F8B504460D4616460C2000F035FF01210D
:108B500000916846007806480460064805600648AB
:108B6000066072B600BF684600780028FBD1F8BDE9
:108B7000F8200020FC20002000210020F8B5044649
:108B80000D46164603480768324629462046B84730
:108B9000F8BD000014270020F8B505460C462778DC
:108BA0000C21A068484306490E580648006800900A
:108BB0002A463946204608302369B047F8BD0000F0
:108BC00050280020D820002010B504460648007820
:108BD00014225043044A121D81182046FFF7DCFF7F
:108BE000042004F003FD10BD8427002070B5034667
:108BF0000C4619480068002801D1082070BD002AE1
:108C000001D10720FAE7002B01D10720F6E7002168
:108C10001CE024204843104D2D68285C002814D106
:108C20000125242048430C4E3668355424204843FF
:108C3000094D2D684019447024204843064D2D6885
:108C40004019826119600020D8E7491C0348007868
:108C50008142DEDB0420D1E708210020042100202E
:108C6000FFB581B00E4617461C4620468107890F86
:108C7000002901D1012100E00021002902D10720B3
:108C800005B0F0BD002C01D10720F9E704F0E0FBAE
:108C900026490A9808602648067026480460002580
:108CA0000CE0002124206843224A12681154242039
:108CB0006843204A1268801801756D1CB542F0DBCC
:108CC00024207043041903201B4908701B480460CA
:108CD000183400250CE0E900184A126888180021B1
:108CE0000170417087704460182179430C196D1C24
:108CF000032DF0DB0020C04311490860002011491A
:108D00000870114908701420FFF790FC032114200B
:108D1000FFF7F8FC1420FFF7A1FC019804F06EFBAC
:108D200004F066FB094908600020A9E7282100201B
:108D300004210020082100200C2100201021002007
:108D400014210020242100202521002018210020AA
:108D5000FEB504460D46164616480068002801D1A7
:108D60000820FEBD14480078844201D2052D01D2AE
:108D70000720F6E7242060430E490968085C0128B3
:108D800001D00820EDE7242060430A490968401813
:108D90004078012801D1284600E00020074605F070
:108DA0007FF93B462A4621460096019005F03AF8A5
:108DB000D7E70000082100200421002070B50446F8
:108DC0000D480068002801D1082070BD0B480078CC
:108DD000844201D30720F8E724206043064909684C
:108DE000085C012801D00820EFE705F059F9054695
:108DF000214605F041F8E8E7082100200421002081
:108E0000F8B505460C462078001D1F2801DD0C2012
:108E1000F8BD684679DF0646002E01D03046F7E7F8
:108E200003212278501C2070A95419212278501C4B
:108E30002070A954207841196846008805F0CAF8C6
:108E40002178401820700020E2E77047F3B593B016
:108E50000D460021129111911398002814D01398F7
:108E6000FFF779FD0446002C02D0204615B0F0BD76
:108E700012AA09A91398FFF7D3FC0446002C01D0CD
:108E80002046F3E709AE00E00026002D13D0284667
:108E900004F00CFC0446002C01D02046E6E711AAA1
:108EA00001A92846FFF7BCFC0446002C01D020464F
:108EB000DCE701AF00E0002710A803793A46017A09
:108EC000304672DFD2E70000F8B504460F4615467B
:108ED0001E46002C01D0002D01D10E20F8BD00202F
:108EE00048490870484806604849069808602422A6
:108EF00029464748FFF744F900F04CF945484649F0
:108F000008604648886030214548FFF752F92078CC
:108F100043490870A0788870E078C870607848701D
:108F2000626920694A6108610846E268A168C26016
:108F30008160E269A169C2618161606A00281BD019
:108F400038483749486238498160606A0088344946
:108F5000496A0880606A80883149496A88800020AF
:108F600005E0616A8968095C2F4A1154401C2C494C
:108F7000496A89888142F4D8A06A002824D02B4904
:108F80002B4881602649886228492548806A81608B
:108F9000A06A80882249896A8880A06A008820495E
:108FA000896A0880002005E0A16A8968095C1F4A77
:108FB0001154401C1A49896A89888142F4D82C20AE
:108FC000015D174820300173206A00280BD0194832
:108FD00013490862206A4088096A4880206A00882C
:108FE0000F49096A08806068002804D012480C49BB
:108FF00048606068486039460948FFF727FF0090DD
:1090000000986BE76C20002064200020682000207E
:109010000025002034250020242500205425002090
:10902000D02400207425002080250020AC250020BD
:10903000A0250020702000207420002070B5044678
:109040002088102804D0112806D0192869D11AE0E8
:10905000A0883549088065E0002034490870A08860
:109060003149098888420DD1012000F0CBF805462E
:10907000002D07D02E480068002803D028462C4930
:10908000096888474EE0A079002849D1294800782E
:10909000012806D0022813D0032820D004283DD16F
:1090A0002FE0022000F0AEF80546002D07D0204842
:1090B0000068002803D028461D49096888472EE02B
:1090C000032000F09FF80546002D07D018480068DF
:1090D000002803D028461649096888471FE0032066
:1090E00015490870042000F08DF80546002D07D0C2
:1090F0000F480068002803D028460D4909688847B2
:109100000DE000200C4908700C480068002804D0CD
:109110000846007809490968884700E000BF00BF99
:1091200000E000BF00BF70BD762000206D20002051
:10913000682000206C200020602000206420002097
:1091400070B504460025022C02D0032C18D100E093
:1091500000BF0D480078002811D000200A4908708F
:109160000A48007800F04EF80546002D07D0084860
:109170000068002803D0284605490968884700E0B0
:1091800000BF00BF70BD0000582000206C200020F0
:109190006820002010B507210148FFF70AF810BD2C
:1091A0005920002010B51348007801281FD112481B
:1091B000007800281BD111480078002805D074DF02
:1091C0000446002C01D0204610BD01200A49087039
:1091D0000A48007800F016F80446002C07D008482A
:1091E0000068002803D02046054909688847002008
:1091F000EAE70000002500206D2000206C20002000
:109200006820002030B587B00546A24805700020D0
:109210000090684603F082FD0446082C02D100202D
:10922000009004E0002C02D0204607B030BD00982A
:10923000002804D00120984908700020F5E7FFF7C6
:10924000A9FF96484078002803D09248007801286A
:1092500007D092488078002812D08E4800780228E3
:109260000ED18F480068002807D001208D49087072
:1092700008208B490968884702E000208949087066
:109280008448007801280BD184484078002804D015
:10929000854803F0BBFC002802D102207D490870FC
:1092A0007C48007802280BD17C488078002804D0C4
:1092B0007D4803F0ABFC002802D1032075490870FB
:1092C0007648007B002806D172480078032802D136
:1092D0000420704908707148007E002808D16D484C
:1092E0000078042804D100206A4908706F4908708A
:1092F0006B480068002817D066480078032803D020
:109300006448007804280FD16448007800280BD006
:1093100067480078002807D10120664908700720B7
:109320005F490968884702E00020624908701821F7
:1093300001A8FEF73EFF002168460171002002905F
:10934000684601730020049052480078012806D036
:10935000022811D0032823D0042879D150E05248A4
:10936000401E02900121684601710021C182818264
:1093700001204E49087075E04B48401E02900121C3
:10938000684601714548008981B26846C1824348F8
:10939000808881B26846818202204449087061E079
:1093A0003E48808A81B26846C1823C48008A81B2C8
:1093B00068468182404804F01EFF00281CD03748D0
:1093C0000078002818D03A480078002814D10220EC
:1093D000694608733848049004203849C870002151
:1093E0003648FFF733FD0446002C01D020461CE729
:1093F00005202E49087002E003202C49087031E056
:109400002648808B81B2684681822448008C81B2D4
:109410006846C182284804F0EEFE00281DD01F488F
:109420000078002819D022480078002815D10220A1
:10943000694608732048049004202049C870002120
:109440001E48FFF703FD0446002C02D02046ECE640
:1094500007E006201549087002E00420134908704F
:1094600000E000BF00BF0B480078002806D001A82C
:1094700073DF0446002C01D02046D6E60848006879
:10948000002804D009480078054909688847002069
:10949000CBE600006C200020582000200025002092
:1094A000642000206F2000205A200020602000202F
:1094B0006D2000206E20002024250020D0240020D4
:1094C00070B505461C2229461448FEF759FE0020B7
:1094D00013490870286800280BD008221148296811
:1094E000FEF74EFE0F487ADF0446002C08D02046D7
:1094F00070BD0C487BDF0446002C01D02046F7E706
:109500000020C04308490880002008490870084A24
:1095100000210848FFF76AFBEAE70000CC2500209D
:109520009020002078200020822000208020002031
:1095300005E001008C20002010B50446208810288A
:1095400006D0112808D012280ED0502810D107E0DC
:10955000204603F071F90CE0204603F0BDF908E065
:10956000204603F01BFA04E0204603F059F900E01E
:1095700000BF00BF10BD000010B50446204601F03A
:1095800023FB2046FFF7D8FF204600F0CDF8204609
:1095900003F0A8F82046FFF751FD2146014800F0EE
:1095A00003F810BD4C21002070B505460C462088FC
:1095B000102808D0112809D050280BD12146284660
:1095C00003F0C0F807E0A088288004E00020C04332
:1095D000288000E000BF00BF70BD00007CB500BF68
:1095E000002348222549082004F020F8054600BF42
:1095F0002E46002E07D000BF21A2FF21C1313046E8
:10960000FFF79EFA00BF00BF00BF0020009001904E
:10961000012069460870684660DF044600BF2546A1
:10962000002D07D000BF16A2FF21CC312846FFF73E
:1096300087FA00BF00BF164803F0ECFF044600BFE6
:109640002546002D07D000BF0DA2FF21D1312846AD
:10965000FFF776FA00BF00BF0E4804F01BF804467F
:1096600000BF2546002D07D000BF05A2FF21D53140
:109670002846FFF765FA00BF00BF7CBD88240020A4
:109680002E2E5C2E2E5C2E2E5C6D61696E2E63007C
:109690007995010005DB01007CB50446A1786A4696
:1096A0000D4803F053FB0546002D13D161781C22B1
:1096B00051430A4A88181C231A46694603F082FC63
:1096C0000748807A800007490A5821466846904733
:1096D000054600BF7CBD000094200020C826002065
:1096E0001427002054E2010070B505460C46002600
:1096F0000B480560002C09D0204604F009F8064606
:1097000000BF002E01D0304670BD00BF0548006884
:10971000002802D1FFF729F906463046F4E7000099
:10972000502000205420002070B5054628881028BD
:1097300002D0112832D118E01A48006800280ED152
:1097400000F090FF044600BF002C07D016480068C8
:10975000002803D0204614490968884700BF1148F3
:109760000068401C0F49086019E00E480068401E60
:109770000C4908600846006800280ED1FFF7F5F88C
:10978000044600BF002C07D007480068002803D01B
:10979000204605490968884700BF00E000BF00BFB8
:1097A00070BD0000542000205020002010B5032080
:1097B00000F0E8FB044600BF002C03D0062C01D0CB
:1097C000204610BD00BF0020FBE70000F3B581B0CC
:1097D00006460025002400E0641C022C04D2A000F0
:1097E00029490858B042F7D1022C42D202980028E9
:1097F00025D0012802D002283AD133E06000201899
:1098000022490D5C600020184018407800280ED0D6
:109810001F4800680A22504301461E4A1E4800683D
:10982000FFF796FA0746002F01D11A48067060002C
:1098300020181649401880781849085518E016482D
:109840000068FFF7BBFA1548005D610061180F4A18
:1098500089188978884204D1600020181146401880
:10986000857805E06000201808494018457800BF59
:1098700000BF002D07D00A480068002803D0284602
:10988000074909688847FEBD2CE2010040200020FE
:109890002C2000204C200020482000204D200020BB
:1098A0003C20002010B50246022A0FD2094B1B694A
:1098B000D8439300084CE45C0123A3400340002BF1
:1098C00001D0012300E000230B7001E000200870AC
:1098D000002010BD000500502CE2010070B50546C7
:1098E000042D06D0072D19D00A2D2AD103F044FEED
:1098F00028E013211448008876DF0446082C0CD099
:1099000000BF2646002E07D000BF10A2FF21EA317B
:109910003046FFF715F900BF00BF13E0FFF742FC28
:109920000446082C0CD000BF2646002E07D000BFEE
:1099300006A2FF21F2313046FFF702F900BF00BF57
:1099400000E000BF00BF70BD022000202E2E5C2E64
:109950002E5C2E2E5C6D61696E2E630030B5034661
:109960000020022B24D2012A07D1012903D11C4651
:109970000D34E4B200E00024224600290FD0012972
:1099800002D0022911D104E05C001C19094D2A55AE
:109990000DE05C001C19074D6419627007E05C0063
:1099A0001C19044D6419A27001E0072000BF00E0FB
:1099B000072030BD4020002070B504460025064831
:1099C0000078C007C00F002803D0204600F06EF8D2
:1099D0000546284670BD000030200020F7B505463A
:1099E0000E4600242648066026480560264902984F
:1099F000086002202840002822D0002706E001222B
:109A000011463846FFF7AAFF04467F1C022F01D2F9
:109A1000002CF4D0002C05D1720802211B48FFF75E
:109A20003DF80446002C02D1FFF722F80446002C32
:109A300005D1174A00211748FFF7D8F8044600BFA0
:109A4000E807C00F002808D000BF00201249886036
:109A500019200003C86000BF8861002C05D10F4A9F
:109A600000210F48FFF7C2F80446002C05D10D4A2B
:109A700001210D48FFF7BAF804462046FEBD00005C
:109A80002C200020302000203C20002034E2010067
:109A9000E19F01004820002000050050FDBE0100AC
:109AA000342000204D8A010038200020F8B50446FB
:109AB000002500262300FEF7ABFD180D18195A9B50
:109AC000F1EFEEEDECEBEAE9E8E7E6E5E4E3E2E10D
:109AD000E0DFDEDD00BF0020FA49886011200003CE
:109AE000C86000BFF848047044E200BF00BF002017
:109AF000F449886001200003C86000BF0846406840
:109B0000012109040840002810D000BF0020ED49C1
:109B1000886001200004C86000BF022C02D1E1204F
:109B2000C00001E07D20400106460EE000BF00209D
:109B3000E449C86001200004886000BF022C01D104
:109B4000C82001E0FF2091300646DF480470642100
:109B50003046FEF7EBFADD49096848430746002224
:109B60003946DB480068FFF7F3F8054602E200BF1C
:109B70000020D449886001200003C86000BF084667
:109B80004068012109040840002810D000BF0020CF
:109B9000CC49886001200004C86000BF032C02D1BA
:109BA0001920400101E07D20400106460EE000BF83
:109BB0000020C449C86001200004886000BF032C55
:109BC00001D1C82001E0FF2091300646BE48047054
:109BD00064213046FEF7AAFABC49096848430746A3
:109BE00000223946BA480068FFF7B2F80546C1E1DD
:109BF00000BF0020B349886001200003C86000BF97
:109C000008464068012109040840002810D000BF20
:109C10000020AC49886001200004C86000BF042C0B
:109C200002D17D20400101E07D20400106460FE089
:109C300000BF0020A349C86001200004886000BF65
:109C4000042C02D1FF20913001E0FF209130064624
:109C50009D48047064213046FEF768FA9B49096804
:109C6000484307460022394699480068FFF770F8D4
:109C700005467FE17DE171E16FE15CE149E136E1BB
:109C80002AE1F0E0EEE0ECE0EAE0E8E0DEE0C5E06A
:109C9000AEE095E07EE06BE040E0FFE700BF002033
:109CA0008849886001200003C86000BF08464068FA
:109CB00001210904084000280FD000BF002081497D
:109CC000886001200004C86000BF052C01D1C820B5
:109CD00001E07D20400106460EE000BF00207949EA
:109CE000C86001200004886000BF052C01D1C82095
:109CF00001E0FF209130064673480470642130462D
:109D0000FEF714FA714909684843074600223946AC
:109D10006F480068FFF71CF805462BE100BF0020E4
:109D20006849886001200003C86000BF0846406899
:109D3000012109040840002807D000BF0020614924
:109D4000886001200004C86007E000BF00205D4972
:109D5000C86001200004886000BF5B4804705B4855
:109D6000002201685A480068FEF7F2FF054601E14B
:109D700000BF00205349886001200003C86000BF75
:109D800000BF0020C86001200004886000BF4E486A
:109D90000470EFE000BF4B4948680121090381438B
:109DA000484A9160012109030140D16000BF474842
:109DB0000022016846480068FEF7CAFF0546D9E060
:109DC00000BF404948680121090381433D4A916031
:109DD000012109030140D16000BF3C4800688200B6
:109DE000811800223A480068FEF7B2FF0546C1E03C
:109DF00000BF34494868012109038143314A916019
:109E0000012109030140D16000BF304800220168F0
:109E10002F480068FEF79CFF0546ABE000BF2949CC
:109E20004868012109038143264A91600121090301
:109E30000140D16000BF25480068820081180022DF
:109E400023480068FEF784FF054693E000BF00202A
:109E50001C49C86019200003886000BF8AE000BF69
:109E600000BF00BF00BF1B480068FEF7A7FF054604
:109E70001120061B002E1CD0002D1AD1012E10D946
:109E8000C821714308466421FEF750F90F4909685B
:109E900048430746002239460E480068FEF758FF3F
:109EA000054600BF00200749C8600120C003886044
:109EB00007E000BF0020034988600120C003C8609C
:109EC00000BF57E000050050282000202C20002073
:109ED000342000203820002000BF0020274988605F
:109EE00019200003C86000BF2548047042E000BF8D
:109EF00000202249886009200003C86000BF00BF1D
:109F00000020C86001200004886000BF1C48047065
:109F100030E000BF0020194988600320C003C860FA
:109F200000BF00BF0020C86001200003886000BFA0
:109F3000134804701EE000BF002010498860012013
:109F4000C003C86000BF00BF0020C860112000032C
:109F5000886000BF0A4804700CE000BF00BF00200A
:109F60000649C86019200003886000BF04480470D7
:109F700000E000BF00BF2846F8BD0000000500500B
:109F80002820002070B50246002021E08400124DF8
:109F90002C59A400114D64192168012484401440F7
:109FA000002C01D0032400E00024234603252D04C7
:109FB0000C46AC4321461C042143052424070725F5
:109FC0002D0264198500044E7559AD006151401C85
:109FD0000228DBD3002070BD2CE2010000070050F6
:109FE00010B5044620780221FFF7F0FB10BD0000F9
:109FF000F8B50546174A18490320FFF7EFFC044659
:10A0000000BF2646002E07D000BF14A29B21890066
:10A010003046FEF795FD00BF00BF69460020FFF700
:10A0200063FB044600BF2646002E06D000BF0BA2ED
:10A030000E493046FEF784FD00BF00BF6846007839
:10A04000022801D1012000E000202870002003F048
:10A050008DFAF8BDDD980100CD0C00002E2E5C2E8F
:10A060002E5C2E2E5C6D61696E2E63006F02000007
:10A070000021C9438200054B9950042804DB0B469C
:10A08000011F024A44325354704700003827002011
:10A0900001468800014A1058704700003827002008
:10A0A000F7B585B00B460020C0430490002A01D0CC
:10A0B000002000E004200390002A01D0042000E0EA
:10A0C0000920029003991EE08800124C2058401C81
:10A0D000002817D10846059C0093019246B20D4D09
:10A0E00024352E5585000B4E009B7351019A002A92
:10A0F00004D166B2051F074F44377E5500BF48B2F2
:10A10000049003E0491C02988142DDD300BF04980B
:10A1100008B0F0BD3827002001460148405670477E
:10A120005C270020F0B587B03E48007814214843F2
:10A130003C49091D4418E7680C21A06848433A4986
:10A140004018008906900C21A06848433649401801
:10A15000408905900C21A068484333494018406865
:10A16000049002F0E5FE014602903846FDF7DEFF5E
:10A17000002901D1012000E00020039005990698F4
:10A180004843049946186088C019A18845180020E2
:10A19000264908600398002804D002F0C9FE6188AF
:10A1A00088420AD00398002804D0B54202D1A08882
:10A1B000002802D0A06803280CD102F0B9FE0146A5
:10A1C00002903846FDF7B2FF19490860032003F0FA
:10A1D0000DFA24E002F0ACFE0190A188C8190199A3
:10A1E000FDF7A4FF88081349086002F0A1FE0146AC
:10A1F00001902846FDF79AFF002901D1012000E0D7
:10A2000000200290B54206D00298002803D1B1B2D6
:10A21000A8B203F091FC022003F0E8F900BF07B0F8
:10A22000F0BD00008427002050280020C820002016
:10A23000CC200020C420002010B50848007814214C
:10A2400048430649091D44182078042802D000F02C
:10A25000A5F801E003F0E4FB10BD00008427002016
:10A2600010B50F480078142148430D49091D4418C2
:10A2700060880C4908602078012804D0032805D0A4
:10A28000042809D105E003F0CBFB06E0FFF74AFF05
:10A2900003E003F0A8FE00E000BF00BF10BD000017
:10A2A00084270020D820002010B5034840780028DB
:10A2B00001D0FFF7D5FF10BD842700200023142113
:10A2C00041430C4A53541421414389184B800223C3
:10A2D0001421414389188B600023142141438918BC
:10A2E000CB601421414389180B6114214143891823
:10A2F0008B80704788270020FFB581B0064617463F
:10A300001C4840780A2830D01A4800781949497802
:10A3100044180A2C00D30A3C142060431549091D37
:10A320000E54142060434018076114206043411804
:10A33000029805C8CA608860142161430D4A121D45
:10A340008918049848801421614389180A988880E4
:10A35000101F4078401C111F4870074800780028E3
:10A3600001D1FFF77DFF002500E00425284605B058
:10A37000F0BD000084270020C020002010B5002080
:10A38000054908704870002403E02046FFF796FF57
:10A39000641C0A2CF9D310BD8427002010B508488E
:10A3A000007814225043064A121D81180020FEF73F
:10A3B000F3FB00F007F8002003F018F910BD0000CF
:10A3C0008427002010B509490878FFF777FF074870
:10A3D0004078401E0549487008460078401CC0B2CD
:10A3E00008700A2801D10020087010BD84270020C1
:10A3F000FEB51E480068401C002834D01B48006889
:10A40000242148431A4909684018456802F0F0FFC2
:10A410000190184804682146019803F0B9FBC61C56
:10A4200015480078002801D102F0F4FFAE4201D2B5
:10A43000284600E0304604192402240A20460F4929
:10A44000086000BF02F0D4FF00900199009803F06B
:10A450009FFBC71C2046019903F09AFB874201D954
:10A4600003F078FD01E002F0F3FFFEBD14210020AF
:10A4700008210020182100202C2100204015014037
:10A4800001460888062808DB08881922D201904274
:10A4900005DD0888104A904201D00720704748889F
:10A4A000062808DB48881922D201904205DD488839
:10A4B000094A904201D00720F0E70888064A9042F6
:10A4C00008D04888904205D008884A88904201DD2B
:10A4D0000720E3E70020E1E7FFFF0000F8B50646AC
:10A4E0000D4614462078801D1F2801D90C20F8BD88
:10A4F0003046FFF7C5FF0746002F01D03846F6E784
:10A5000005212278501C2070A95412212278501C59
:10A510002070A95422785119308803F05BFD21780E
:10A520004018207022785119708803F053FD21786B
:10A53000401820700020DAE710B5044600BF04A2DE
:10A54000FF2132312046FEF7FBFA00BF10BD0000AC
:10A550002E2E5C2E2E5C2E2E5C6D61696E2E63009D
:10A5600030B587B01C216846FDF723FE002000901F
:10A570000520C00301900F200004029003216846CB
:10A5800001730021C18101740B4805900B480690AE
:10A590006846FEF795FF044600BF2546002D07D00C
:10A5A00000BF07A2FF214A312846FEF7C9FA00BFC3
:10A5B00000BF07B030BD0000DDC7010039A50100B4
:10A5C0002E2E5C2E2E5C2E2E5C6D61696E2E63002D
:10A5D00038B51F4801F0A6FB002829D11D48007896
:10A5E00000280AD01C484069002820D00020009094
:10A5F000194841696846884719E0184800780028DA
:10A6000002D11548456801E01348856800222946B3
:10A6100013480068FEF79CFB0446002C07D00E4848
:10A620008069002803D00C488169204688470AE0E9
:10A6300009484069002806D0012000900648416979
:10A640006846884700BF00200249087038BD0000F6
:10A650008420002090200020CC2500208020002095
:10A660008C20002010B5012200210846FFF776F962
:10A67000044600BF002C03D0072C01D0204610BD9B
:10A6800000BF072202210120FFF768F9044600BF3E
:10A69000002C03D0072C01D02046F0E700BF042295
:10A6A00002210020FFF75AF9044600BF002C03D016
:10A6B000072C01D02046E2E700BF0020DFE70000C2
:10A6C00070B503460C460820002115E00C254D43CB
:10A6D0000B4EAD19AD7A2540002D0CD0094DAB4283
:10A6E00005D00C254D43AD192D899D4202D1116035
:10A6F000002003E00520491C0029E7D000BF70BD01
:10A7000008270020FFFF000010B5044601210C209F
:10A7100060430A4A80188172891E0C2060438018A9
:10A720000181FF210C2060438018C1720C2161431C
:10A7300088180721FDF73DFD10BD00000827002007
:10A7400010B514484068C105C90D002920D00A463B
:10A75000103A50B200280CDB0F4B032424021B19C3
:10A760008408A4001B598407E40EE3401B069B0FDA
:10A770000CE0084B1C330407240F083CA408A40079
:10A780001B598407E40EE3401B069B0FD8B210BD93
:10A790000420FCE700ED00E000E100E010B51C48FB
:10A7A00000680821084000282FD11A480068401C82
:10A7B0001849086018480068002803D0042003F0F6
:10A7C00097F924E001F012FB002803D0022003F0E7
:10A7D0008FF91CE011480068002813D00C4800785D
:10A7E000C007C00F002809D10948006801210843AB
:10A7F00007490860002003F07BF908E0032003F01C
:10A8000077F904E003F048F901E003F055F910BDD1
:10A81000DC200020CC200020C4200020C820002004
:10A8200010B50C4800680821084000280FD10948DD
:10A83000006802210840002805D006480068012170
:10A84000084304490860022003F052F901E003F0D4
:10A8500033F910BDDC200020F8B5002535E0E80014
:10A860001C490968441821780120884006461A4886
:10A8700000683040002826D017480068B0431649C9
:10A880000860207801F06AFE0746217801208840A0
:10A89000124909680840227839469140884211D10E
:10A8A0006078012800D100E0002078400121484074
:10A8B00000906068002804D0009BD9B220786268BC
:10A8C000904700BF00BF681CC5B2054800788542AC
:10A8D000C5DBF8BDE0200020F4200020F02000209F
:10A8E000E4200020FEB504460E46A1786A462848BA
:10A8F00002F02CFA0546002D49D160780C2148431E
:10A9000024494018807A40210840402801D0022E76
:10A9100001D1214F04E0012E01D1204F00E0204F52
:10A92000A0781C2250431F4A811800231C2268462D
:10A93000B8470546002D1AD1022E18D060780C2198
:10A94000484314494018807A4021884361780C229A
:10A950005143104A8918887260781C225043124A69
:10A9600081181C231A466846B847054600BF022EC8
:10A970000DD020780C2148430C494018807A800083
:10A980000B490A58214668469047054600BFFEBD60
:10A99000942000200827002005D30100D9D1010010
:10A9A000B5D9010004260020C82600201427002065
:10A9B00044E20100F8B505460E461B4F00242EE088
:10A9C0001C20604319494018807EFF2826D130782A
:10A9D000022814D01C2060434018807E0221884346
:10A9E0001C216143114A891888761C21614389180A
:10A9F0000846103007223146FDF7C2FB0BE01C2051
:10AA000060430A494018807E410849001C20604389
:10AA1000064A801881762C70002702E0641C072CFF
:10AA2000CED300BF3846F8BD438000000426002086
:10AA3000F8B505460E4617460520009000241BE099
:10AA4000002D06D11C2060430E494018008BB842EF
:10AA50000DD0002D0FD01C2161430A4A89180846E9
:10AA6000103007222946FDF7AFFB002803D13460E0
:10AA70000020009002E0641C072CE1D300BF009886
:10AA8000F8BD0000042600207CB50546A9B26A4640
:10AA9000084802F05BF90446002C09D1742168468D
:10AAA00002F0A6F90446002C02D1284602F0BCF8B8
:10AAB00020467CBD94200020F8B506460F4614467B
:10AAC00000BF2546002D06D000BF04A20749284636
:10AAD000FEF736F800BF00BF0020F8BD2E2E5C2E1A
:10AAE0002E5C2E2E5C6D61696E2E630005020000E7
:10AAF0007FB50546039502F021FA044600BF2646BD
:10AB0000002E07D000BF29A2872189003046FEF71A
:10AB100017F800BF00BF03A800F084FB044600BF85
:10AB20002646002E06D000BF20A224493046FEF75C
:10AB300007F800BF00BF052101A80130FDF739FB70
:10AB40006846407941084900491C6846417140798E
:10AB50000221884301466846417140791C2188439F
:10AB600001460C31684641714079202188430146F5
:10AB700068464171072181711021C1711048009010
:10AB800001216846017169460E4800F0F5FC044653
:10AB900000BF2646002E07D000BF04A207490E3191
:10ABA0003046FDF7CDFF00BF00BF7FBD2E2E5C2ECF
:10ABB0002E5C2E2E5C6D61696E2E63001F020000FC
:10ABC000B9AA010000200020F0B58FB00446FF2094
:10ABD0000D9000260020079000BFFE480078002856
:10ABE00001D10FB0F0BD00BF00BFFB4800680028D6
:10ABF00000D1F6E700BF0CA800F006FB054600BF39
:10AC00002F46002F06D000BFF44AF5493846FDF71D
:10AC100097FF00BF00BF002008900025201D0A906C
:10AC20002A2168468185FF2108A8817400210174CA
:10AC300000200E902088102813D0A0880EAA022190
:10AC4000FFF73EFD0546002D0BD10C210E98484321
:10AC5000E4494018C17A08A881740E98C1B208A8C6
:10AC60004174208817287BD008DC10280DD01128CB
:10AC70007CD0132876D0142875D1B5E0182873D06D
:10AC80001C2872D05228F7D184E20EAF3A46012137
:10AC9000D548FFF715FD00900098002807D1022144
:10ACA0000C2238685043CF4A8018817201E004209A
:10ACB000009000980546002D51D10126112108A8C9
:10ACC00001710E98C1B208A84174A1880C220E9897
:10ACD0005043C44A8018018102210C220E9850432F
:10ACE000C04A801881720C220E995143BD4A8818BF
:10ACF0000722A11DFDF744FA207D304000280AD02C
:10AD0000207D4008B949085CFF280AD0207D400812
:10AD1000085C0D9005E0B44A0DA9A01DFFF788FE60
:10AD20000546002D1BD10D98C1B20C220E98504340
:10AD3000AC4A8018C1720C210E9848431146401845
:10AD4000807A082108430C220E995143A54A89189C
:10AD5000887208A90D9888740CA8FEF79DFC28E25B
:10AD6000FAE003E085E023E2B1E11CE20C210E9859
:10AD700048439C494018807A022188430C220E994E
:10AD80005143984A891888720C210E9848431146FD
:10AD90004018807A0821084008280ED10C210E980E
:10ADA000484311464018807A8021084080280FD1FE
:10ADB00000210CA8FFF796FD0AE008A8807CFF2878
:10ADC00006D008A9887C01F02FFFFF2008A988740D
:10ADD00010210C220E985043824A8018817201265D
:10ADE000122008A90871E4E10C210E9848437D491E
:10ADF0004018C07AFF2823D1E2890DA90020FFF76F
:10AE000017FE0546002D1BD10D98C1B20C220E98DD
:10AE10005043744A8018C1720C210E984843114661
:10AE20004018807A082108430C220E9951436D4A3C
:10AE30008918887208A90D9888740CA8FEF72CFC54
:10AE40000C210E98484367494018C07AFF2805D066
:10AE50001C210E9848436649401807901C230E9900
:10AE60005943644BCA18A0880023079982DF05461E
:10AE70009FE1132008A908710C210E9848435949F5
:10AE80004018807A042108430C220E995143554AF8
:10AE90008918887201260C210E98484311464018E3
:10AEA000C07AFF2819D10C220E9850430A46811807
:10AEB0000DA8FFF77FFD0546002D0BD108A90D98C1
:10AEC00088740D98C1B20C220E985043454A8018E0
:10AED000C1721DE0089501261AE0162008A9087124
:10AEE00024220E995143444A8918084608301A21F1
:10AEF000FDF75FF90C210E9848433A494018807AD3
:10AF0000402108430C220E995143364A8918887211
:10AF1000002004900C210E98484332494018C07A12
:10AF20001C214843334941180591002106911C21F9
:10AF30000E9848432E49401801900020029003903B
:10AF4000A08801AB244A121D00217FDF0546002D99
:10AF500001D0089500262CE11F48407A40084000A7
:10AF60001D4948720C210E9848431E494018807AAA
:10AF7000042188430C220E9951431A4A8918887279
:10AF8000142008A908710126A07900280AD00C22F3
:10AF90000E995143134A8918C87AFFF775FDA079B5
:10AFA000089093E0E0794007C00F00287ED008A801
:10AFB000807CFF287AD00C210E984843094940181C
:10AFC000807A082108430C220E995143054A8918BA
:10AFD000887213E0A020002014270020A4E20100C2
:10AFE000E809000008270020FFFF0000A120002042
:10AFF000C826002004260020E4260020E07A8007EE
:10B00000C00F00280FD008A8807C1C214843774936
:10B010004018807E4108490008A8807C1C225043CB
:10B02000724A801881760C210E9848437049401866
:10B03000C07AFF284AD00C210E9848436C49085C1E
:10B04000022820D00C230E9A5A430B46D11808AA86
:10B05000927C1C235A43654BD218104610300722AD
:10B06000FDF78EF808A8807C1C2148435F494018F2
:10B07000807E0221884308A9897C1C2251435B4AB7
:10B08000891888761EE01C210E98484359494018BB
:10B09000418A08A8807C1C225043544A80180183AE
:10B0A00008A8807C1C214843114600E00EE04018AF
:10B0B000807E4108490008A8807C1C2250434B4AEE
:10B0C0008018817601210CA8FFF70CFC71E0A079B3
:10B0D000000901283DD1A0790007000F012838D1CF
:10B0E0000C210E98484342494018807A08210840B4
:10B0F00008282ED124220E9951433F4A8918081856
:10B100001A21FDF756F8162008A908710C210E988F
:10B11000484337494018807A202108430C220E9971
:10B120005143334A891888720C210E9848431146BE
:10B130004018807A402108430C220E9951432C4A32
:10B14000891888722D48407A022108432B49487299
:10B150001CE00C210E98484325494018807A802134
:10B1600008430C220E995143214A891888721520F0
:10B1700008A908712148807A8000214A11580CA83A
:10B1800088470546002D01D01E48089000200890F1
:10B1900001260EE01948807A8000194A11580CA83F
:10B1A0008847089005E0132008A90871012600E0EF
:10B1B00000BF00BF002E16D009A90CA8089AFDF701
:10B1C000DDFC08A8007912280DD100BF0C210E98D3
:10B1D000484307494018807A012802D00E98FFF7AB
:10B1E00093FA00BF00BF00BFFBE40000042600206C
:10B1F00008270020C8260020E4260020142700206D
:10B2000064E20100418000000146002901D10448A8
:10B210007047FF20087048708870C8700020F7E7FA
:10B220000E8000007FB50646002E02D1374804B0DC
:10B2300070BD00240FE000BF00210C206043344AA1
:10B2400011500C206043801841720C20604380181C
:10B25000817200BF641C002CEDD0002403E0204666
:10B26000FFF752FA641C002CF9D024212948FCF77E
:10B27000A0FF002406E0204601F0D6FCFF2026496E
:10B280000855641C072CF6D3742168468181072178
:10B29000C18122480290224902A801F011FF05460F
:10B2A000002D30D101201F4908703078002821D1AD
:10B2B00000241CE0A1B26A46194801F047FD05468A
:10B2C000002D0FD11C216143174A881800231C222E
:10B2D000694601F077FE0546002D07D00020114990
:10B2E000087006E000200F49087002E0641C072C7B
:10B2F000E0D308E06A469089D289504381B2084879
:10B3000001F076FD0546284691E700000E8000001A
:10B3100014270020E4260020A12000202DB30100E6
:10B3200094200020A020002004260020FFB591B02A
:10B330001D4600BF84480068002801D115B0F0BD4B
:10B3400000BF1A98742800D9F8E7012007900DA8CB
:10B35000FFF75AFF064600BF3746002F06D000BF52
:10B360007A4A7B493846FDF7EBFB00BF00BF00215E
:10B3700008A8017501760C951A980B90002712E029
:10B38000B9B208AA734801F0E1FC0646002E09D1C3
:10B39000082208A91198FCF717FF002802D108A974
:10B3A0008F7502E07F1C072FEAD300BF08A8807DBD
:10B3B000FF2877D0129803280AD11A98742803D14D
:10B3C000202008A9087698E0402008A9087694E093
:10B3D0006149681A1C21FCF7A9FE0446072C1DD2FE
:10B3E0000AA80F901398002810D108A9887D012180
:10B3F00081405A4A12681140002901D0012100E021
:10B400000021002902D10020079076E008A9887D5C
:10B4100002F0EEFD202008A908766EE05049681A77
:10B420001C21FCF783FE0446002C1AD10AA80F90B9
:10B43000202108A80176447500200490494905910F
:10B440001C20604346494018019008A8807D1C21BB
:10B45000484341494018029001A80C9018200B90D5
:10B460004BE04149681A2421FCF760FE0446002C99
:10B4700019D1302108A8017644750121C1750C202D
:10B4800060433A494018807A02210840022834D0AB
:10B4900008A9497D24225143334A88182421FCF706
:10B4A00088FE2AE04DE000200790402008A9087699
:10B4B0002F48854204D103201290012007901CE000
:10B4C00008A8807D80002B490858A84215D101208A
:10B4D00007900AA80F9000200CE008A98A7D0C2193
:10B4E0004143224BC918C97A8A4202D108AA507531
:10B4F00002E0401C0028F0D000BF0798012820D1AE
:10B500001298032806D108A9087E0321084308A938
:10B5100008760FE01298022806D108A9087E0121BA
:10B52000084308A9087605E008A9087E0221084317
:10B5300008A908760AA80F900EA90DA8139AFDF77E
:10B540001DFB00BFFAE6000014270020A4E2010062
:10B550009905000094200020042600209C20002053
:10B56000C826002020270020E426002008270020ED
:10B5700074E20100E825002070B505460C4600BFC6
:10B5800029480078002801D1284870BD00BF002D4F
:10B5900002D12648801DF8E7002C02D12348801DE7
:10B5A000F3E72068002802D12048801DEDE72048FD
:10B5B0000068002834D11E49206808600522611DFA
:10B5C0001B48001DFCF7DCFD2079194988720846EC
:10B5D000007A4008400008720846007A0221884339
:10B5E000801C134908720846007A042188431049D8
:10B5F00008720846C07940084000401CC8710846DF
:10B60000C07902218843801C0949C8710846C07965
:10B61000042188430649C87100202870002601E0F3
:10B62000024E361F3046B0E7A02000200880000000
:10B6300014270020014614480078144A12789042DA
:10B640001DD011480078401C0F4A10701046007839
:10B65000022801D1002010700B48007880000C4AAD
:10B66000105808600B4A086812688018094A106070
:10B67000104600680002000A106001207047002098
:10B68000086000BFFAE700002421002025210020E7
:10B690001C2100201821002010B50D480068082149
:10B6A0000840002810D10B480068401C0949086078
:10B6B00000F09CFB002802D1FEF7BEFD06E0064824
:10B6C000007801F093FF01E000F0B0FD10BD000034
:10B6D000DC200020CC200020C0200020F0B5034654
:10B6E000002426E0164E366824277E43154F3F6817
:10B6F000F01946689E4203D94668F61A46601DE076
:10B7000046689B1B466834190026466006750C4E39
:10B7100035680B4F066A3E600669002E08D00E1988
:10B720003602360A86600669C660166806621560CB
:10B7300000BF03480068401C0028D3D100BFF0BD03
:10B74000142100200821002010B50446002C02D04E
:10B75000112C08D100E00AE00648006808210843DF
:10B760000449086003E02046FDF72EFA00BF00BF41
:10B7700010BD0000DC20002010B50C480068401C03
:10B780000A49086003280DD009480078022804D02F
:10B790000748007801F02AFF07E00648007802F029
:10B7A000A7F902E00D20FDF70FFA10BDD020002010
:10B7B000C0200020C120002010B50A4800780128D0
:10B7C00004D0022808D0032809D102E002F02EF9A3
:10B7D00006E0FFF761FF03E002F07EF900E000BF42
:10B7E00000BF10BDC020002070B50446204628DFF1
:10B7F0000546FFF7A9FF70BDF8B504460D4616468D
:10B8000032462946204629DF0746FFF79DFFF8BD4F
:10B810003EB500BF6846007801090901491C009146
:10B8200068460078F02188431030009000BF042261
:10B8300017A168467CDF044600BF2546002D07D0CF
:10B8400000BF15A2FF2101312846FDF779F900BF9D
:10B8500000BF002001900290502168468180A02105
:10B86000C18000210181FF219131418101A87ADF4E
:10B87000044600BF2546002D07D000BF06A2FF21C9
:10B880000B312846FDF75CF900BF00BF3EBD00004C
:10B89000416E6973000000002E2E5C2E2E5C2E2E51
:10B8A0005C6D61696E2E63000146002070470246A0
:10B8B000002070470246002070470000F8B505469A
:10B8C000002700200090002668782421484333494F
:10B8D00040184068002827D068780C214843304938
:10B8E0004018807A8021084080281DD168780C217A
:10B8F00048432B494018807A40210840402813D003
:10B900006878242148432549401807460837687855
:10B910002421484321494018808880B200906878EB
:10B92000242148431D490E5869780C2251431C4A72
:10B930008918088933463946009AA9DF04460B2C3A
:10B940000BD1012669780C225143154A89180889C0
:10B9500033463946009AA9DF0446002C00D0114C2A
:10B96000012E18D169780C2251430D4A8918088993
:10B970000D4A0C21A7DF0446002C0CD00B48844252
:10B9800008D0082C06D0801C844203D0112C01D092
:10B99000002400E0034C2046F8BD0000E42600200F
:10B9A0000827002041800000FFFF00000230000057
:10B9B00070B505460C466178242251430D4A88181B
:10B9C00038232422294601F0FDFA0646002E0FD125
:10B9D000607824214843074940184068401C0028EB
:10B9E00006D10021607824225043024A8018416029
:10B9F000304670BDE4260020F3B589B00C4603271D
:10BA00001A20089061780C2251432E4A891808891F
:10BA10003B4608AA01A9AADF0646002E4FD161784D
:10BA200024225143284A89180846083069460A8C5E
:10BA300001A9FCF7C9FB002812D160780C2148430A
:10BA400020494018807A02210840022837D06178C6
:10BA5000242251431C4A88182421FCF7AAFB2EE01B
:10BA6000607824214843184940184068002801D0D4
:10BA7000164D00E0164D60782421484312490F50BE
:10BA80006946098C6078242250430F4A801841602F
:10BA90006178242251430C4A8918084608306946C7
:10BAA0000A8C01A9FCF76CFB607824225043064AFB
:10BAB0008118382324220998A847064600BF002091
:10BAC0000BB0F0BD08270020E426002005D30100BC
:10BAD000D9D1010070B505462846FFF7EFFE0446B0
:10BAE000002C02D100BF00BF0446204670BD70B5D7
:10BAF00005460E4631462846FFF75AFF0446002CFD
:10BB000002D100BF00BF0446204670BD70B5054697
:10BB10000E4631462846FFF76FFF0446002C02D13F
:10BB200000BF00BF0446204670BD000008B50020DD
:10BB3000009001216846017041700021C170817040
:10BB4000044A6946142000F08FFC0121142000F003
:10BB500027FC08BD49BC0100F8B505460F46012089
:10BB6000A840044618480068FDF728F90646002E4C
:10BB700000D0F8BD15480068204000281DD1284697
:10BB800000F0ECFC002805D0114800682043104963
:10BB9000086004E00E480068A0430D4908600B48A7
:10BBA000006820430949086000220A4801680648E5
:10BBB0000068FDF7CDF8064604E004480068A0439D
:10BBC0000249086000BFD4E7EC200020F4200020E8
:10BBD000F0200020E820002010B518480068082157
:10BBE0000840002826D100F057F900280CD000208A
:10BBF0001349086011480068012108430F49086093
:10BC0000002001F075FF17E000F0F0F8002806D0E2
:10BC100000200B490860022001F06AFF0CE009488F
:10BC20000068002803D0032001F062FF04E001F067
:10BC300033FF01E001F040FF10BD0000DC200020D8
:10BC4000C4200020C820002070B504460D46012005
:10BC500001F08CFC00200249086001F02FFD70BD4E
:10BC60000C200020F8B529480078002800D1F8BD44
:10BC700027480068002801D1012000E00020054687
:10BC800024480068002801D1012000E00020064679
:10BC900000BF002D14D1684651DF0446052C01D1A8
:10BCA00001250CE0002C06D000BF1B4A6521204670
:10BCB000FCF746FF03E0164900980968884700BF73
:10BCC000002E1AD115480088009069461448006873
:10BCD00061DF0446052C01D101260DE0002C06D0C1
:10BCE00000BF0D4A7C212046FCF72AFF04E00C48E7
:10BCF000006808490968884700BF002D02D0002E5F
:10BD000000D000E0C5E700BF00BFB0E7342100204D
:10BD10004421002040210020F0E201003C210020CD
:10BD20003821002001464888064A1288904206DBE6
:10BD30004888044A5288904201DC01207047002064
:10BD4000FCE70000782000200C48008CC0B20128DD
:10BD500012D10A48808C0007000F00280CD1074838
:10BD6000806AF0210840402806D10448C06A084093
:10BD7000002801D1012070470020FCE7C00F00F02F
:10BD80001948008CC0B201282CD11748808C0007BC
:10BD9000000F002826D11448806AF02108400028AE
:10BDA00006D11148C06A0840002801D1012070471F
:10BDB0000D48806AF0210840102806D10A48C06A60
:10BDC0000840002801D10120F1E70748806AF021EE
:10BDD0000840302806D10448C06A0840002801D134
:10BDE0000120E4E70020E2E7C00F00F0F8B51248B8
:10BDF0000078142148431049091D4518EF6801F0E7
:10BE000097F800906988C919AA888918481E00996E
:10BE1000FCF78CF9064609480068B04207D307488A
:10BE20000068B04205D106480068002801D101240D
:10BE300000E000242046F8BD84270020CC2000200C
:10BE4000C82000201348008CC0B201281FD111481F
:10BE5000808C0007000F002819D10E48806AF0215D
:10BE60000840A02806D10B48C06A0840002801D12C
:10BE7000012070470748806AF0210840D02806D189
:10BE80000448C06A0840002801D10120F1E70020E1
:10BE9000EFE70000C00F00F0F8B51048007814215B
:10BEA00048430E49091D4518EE6801F041F800901D
:10BEB00069888919AA888918481E0099FCF736F9FB
:10BEC000074607480068002805D006480068B842C1
:10BED00001D1012400E000242046F8BD8427002081
:10BEE000C8200020CC20002001468807800F0028B1
:10BEF00001D1012070470020FCE7000010B5044686
:10BF000005480078C007C00F002803D00348007818
:10BF1000FDF7CCFD10BD00003020002028200020BF
:10BF2000FEB52B48006801902A480078009040E058
:10BF30000098C000284909684418257835E0182081
:10BF4000684361680F18681CC5B2A078A84200D188
:10BF500000253878022802D0032823D10EE02421BE
:10BF6000786848431D4909684618307D002804D088
:10BF7000786801F0F1FE0020307514E00CE01449FF
:10BF8000096824225143154A126888180021017556
:10BF90000F4A016A116000BF0D480068401C00286C
:10BFA000EDD100E000BF00BF00BF6078A842C6D15D
:10BFB00000BF0098411EC9B200910028B8D10448C2
:10BFC00001680198814201D00120FEBD0020FCE7FC
:10BFD000142100200C210020102100200821002025
:10BFE000FEB5074643480068029043480078019038
:10BFF00071E00198C00041490968451863E0781C68
:10C00000002807D03E46242070433D490968441863
:10C01000276A29E02978182359436A685018297833
:10C02000491C29702978AA78914201D100212970F0
:10C03000466824217143324A12688C18017801291C
:10C0400002D1217D002900D03DE08168A160C16856
:10C05000E160016921614169E1612A4909780029AA
:10C0600001D00021A16000BF2749A0680968401ADB
:10C070000002000A2549884208D22349A0680968BD
:10C0800001F086FDE1684018606011E01E48A1687B
:10C09000006801F07DFD0090E1680098814204D9BC
:10C0A000E1680098081A606001E00020606000BF4D
:10C0B0000020A060E06001202075801E20623046D4
:10C0C00001F0DCFD00BF781C002898D12878697841
:10C0D000884294D100BF0198411EC9B20191002845
:10C0E00087D1044801680298814201D00120FEBD39
:10C0F0000020FCE7142100200C210020102100204A
:10C10000082100202D21002018210020FFFF7F00A2
:10C1100008B53B483B49086001F022FF6846FDF73F
:10C1200067FFFDF75BFA68460078FEF7E1FCFFF772
:10C130006FFB01F013FAFCF745FCFEF711FAFCF770
:10C1400084FE0320FDF75EF8044600BF2546002D5F
:10C1500006D000BF2CA230492846FCF7F1FC00BFF6
:10C1600000BF092000F03CFA032000F039FAFFF785
:10C17000DDFC00BF00F0B8FD0A202EDF01F032F92F
:10C18000012808D1092000F05FFA032000F054FADA
:10C1900001F094FAEEE701F025F9002808D1032018
:10C1A00000F052FA092000F047FA01F0D9FBE1E76C
:10C1B00001F018F9022803D1184812490860D9E79C
:10C1C00001F010F9032803D115480E490860D1E7A2
:10C1D00001F008F9042803D112480A490860C9E7A8
:10C1E00001F000F9052803D10F4806490860C1E7AE
:10C1F000032000F029FA092000F01EFABAE7000037
:10C20000F82401001C2000202E2E5C2E2E5C2E2EE9
:10C210005C6D61696E2E630097020000204E000085
:10C220003075000010270000C0D4010010B505488B
:10C23000006808218843034908600348007801F03A
:10C24000D5F910BDDC200020C0200020F8B505463F
:10C250000E4614462879801CC7B22078801CC0196D
:10C260001F2801DD0C20F8BD781CC1B22278501CBB
:10C270002070B154FF212278501C2070B1542278D4
:10C280009119288801F0A6FE217840182070A8880E
:10C2900000280EDDA868002801D10720E3E7AA885E
:10C2A00023789819A968FBF76BFF20782979401843
:10C2B00020700020D7E7F7B584B004460F460698F3
:10C2C0000678B01C1F2803DC6078801C1F2802DD64
:10C2D0000C2007B0F0BD1F20801B801E85B2029588
:10C2E000B11C781802A97DDF03900398002801D0C3
:10C2F0000398EEE72078022808D168460089A84212
:10C3000004DC09200190684605890BE008200190B3
:10C310006078002804D06078A84201DC657801E0EC
:10C3200068460589681CC2B23046711CCEB23A54C8
:10C330003046721CD6B20199395406980178A81C6F
:10C340000818C1B2069801700020C2E7014600201B
:10C3500070470246002070470246002070470000E8
:10C3600070B504460D4629462046FCF78FF9204655
:10C37000002805DBC206D20E01219140064A116059
:10C3800000BF2046002805DBC206D20E01219140E5
:10C39000024A116000BF70BD80E200E000E100E0F1
:10C3A000FEB505460E46284600F07AFC002820D04F
:10C3B0002846FDF7B1FE001F28490F5CBC11032C75
:10C3C0000CD100BF264800690121A940084000287F
:10C3D00001D0032000E00220019005E0012C01D1F2
:10C3E000022000E0032001902846019900F001F9A5
:10C3F00032E0284600F060FC00282DD02846FDF7EA
:10C400008BFE0446A000FF30013080B20190204630
:10C4100014495122120189188200895801221143BE
:10C42000104A51231B01D2188300D15000BF01983C
:10C4300000F018F9002E0ED02846FDF76DFE009092
:10C44000FDF726FE0746002F04D00121A140084633
:10C4500000F01CF900BF00BFFEBD00007C270020DB
:10C460000005005000600040F7B582B004460E465B
:10C4700000200190204600F005FC002802D0082092
:10C4800001905FE0F27820460499FDF709FE054629
:10C49000681C002853D0B078002810D000BFA1003D
:10C4A0002A4A89180968022291430846052109078A
:10C4B000072212028918A200885000BF0AE0707893
:10C4C00081000522120707231B02D218A300D150B6
:10C4D00000BF00BFF078002826D037781C485121D3
:10C4E00009014018A90040581A490840184951222A
:10C4F00012018918AA0088501548512109014018D5
:10C50000A900415820021F22120210403A040323BE
:10C510001B041A40104301430D4851221201801898
:10C52000AA00815000BF0CE0281F0B49085C31783D
:10C530008901084342B2281F07490A5401E0042038
:10C54000019000BF019805B0F0BD00000007005049
:10C5500000600040FFE0FCFF7C270020014600BF98
:10C5600005480069C840C007C00F002801D001205D
:10C5700070470020FCE700000005005010B512488D
:10C58000407A002801D0082010BD002404E0204695
:10C5900000F0A2FB601CC4B2202CF8DB002404E0F5
:10C5A0002046FDF765FD601CC4B2092CF8DB0121B3
:10C5B0000620FFF7D5FE0120C00700F067F8012133
:10C5C000014841720020DFE7782700200348407AC5
:10C5D000002801D0012070470020FCE778270020C8
:10C5E00003210522120707231B02D2188300D15012
:10C5F000704710B50522120707231B02D2188300CB
:10C60000D25803231B049A4305231B070724240243
:10C610001B1984001A510522120707231B02D21886
:10C620008300D2580B041A4305231B070724240256
:10C630001B1984001A5110BD01218140014AD160AB
:10C64000704700000005005001218140014A9160BF
:10C650007047000000050050014601480818704767
:10C660000060004010B504462046FFF7F5FF0021AA
:10C67000016010BD10B504462046FFF7EDFF0068CD
:10C68000012800D110BD0020FCE7000001494860EE
:10C69000704700000063004070B50546002D13D0C0
:10C6A000032D14D10220FDF787F9044600BF26466A
:10C6B000002E07D000BF07A2FF217C313046FCF7D7
:10C6C0003FFA00BF00BF03E000F056FF00E000BFEC
:10C6D00000BF70BD2E2E5C2E2E5C2E2E5C6D61690F
:10C6E0006E2E630070B505462888102802D01128E8
:10C6F0001AD114E00720FDF75FF9044600BF264673
:10C70000002E07D000BF0AA2FF2194313046FCF76B
:10C7100017FA00BF00BFA8880949088005E000207B
:10C72000C0430749088000E000BF00BF70BD0000A3
:10C730002E2E5C2E2E5C2E2E5C6D61696E2E63009B
:10C74000022000203EB504460D46012168460180C6
:10C750000021418002A80190E888A18888422DD15B
:10C76000A18820886A46A5DF6846007A012802D1A0
:10C77000194908602FE06846007A002802D116495E
:10C78000086028E06846007A022802D11249086051
:10C7900021E06846007A032802D10F4908601AE0B8
:10C7A0006846007A042802D10B49086013E0684605
:10C7B000007A05280FD1084908600CE0E988208933
:10C7C000814208D1218920886A46A5DF6846007A1F
:10C7D000012800D000BF3EBD2420002070B50546D2
:10C7E0002878002811D13B210848008876DF0446CC
:10C7F00000BF2646002E07D000BF05A2FF2126312C
:10C800003046FCF79DF900BF00BF70BD022000203C
:10C810002E2E5C2E2E5C2E2E5C6D61696E2E6300BA
:10C8200010B504460822A11D0248FBF7A9FCFDF73C
:10C83000CFFE10BD8420002010B50446A088094911
:10C8400008800822214616310748FBF799FC002092
:10C85000064908700648C089002801D1FDF7B8FED6
:10C8600010BD0000822000208420002080200020B5
:10C87000CC25002010B508480078012802D00228F5
:10C8800007D102E0FBF7BAFF04E003200249087079
:10C8900000E000BF00BF10BDB42000200B480078AE
:10C8A000002802D003280DD108E0042008490860C0
:10C8B0000120084908600549087004E00220034986
:10C8C000087000E000BF00BF70470000B4200020E7
:10C8D000002500400020004070B505460020C04300
:10C8E0000A49088000200A4908700A480068FCF7D5
:10C8F00065FA0446002C07D007488069002803D059
:10C90000054881692046884770BD000082200020CC
:10C91000802000208C200020CC25002010B5094864
:10C920000078012807D0022804D0032806D1FBF79D
:10C9300065FF04E000BFFBF730FF00E000BF00BF71
:10C9400010BD0000B420002010B5FBF757FF10BD4C
:10C9500010B504462300FBF75BFE0504070D0A1023
:10C960001300FFF787FF0CE0FFF798FF09E0FFF7E0
:10C97000D5FF06E000F008F803E0FFF7E5FF00E070
:10C9800000BF00BF10BD000010B5034800780128AB
:10C9900001D1FBF707FF10BDB420002070B505469C
:10C9A000AC1D20881249C989884220D1208B0228D9
:10C9B0001DD100BF00BFA17EE27E120211430846D6
:10C9C000C107C90F002902D0FDF702FE0FE0094898
:10C9D0000068FCF7F3F90646002E07D0044880698A
:10C9E000002803D0024881693046884700BF70BDE7
:10C9F000CC2500208C20002070B596B00546002480
:10CA0000524B0FCB11AE0FC6514810A98882163178
:10CA100011A863DF00BF2646002E06D000BF4DA23E
:10CA20007F213046FCF78CF800BF00BF1C210AA80C
:10CA3000FBF7BFFB08A8007A02218843811C08A8E5
:10CA40000172007A08218843083008A90872002082
:10CA5000099000BF08A8007901090901491C08A82C
:10CA600001710079F0218843103008A9087100BFD6
:10CA700000BF08A8407901090901491C08A84171B3
:10CA80004079F0218843103008A9487100BF08A8F8
:10CA9000807906218843811C08A8817109A80F901C
:10CAA00008A8007A10218843411808A801720020C4
:10CAB000089008A8807806218843801C08A98870FF
:10CAC00000BF08A8007801090901491C08A80170E5
:10CAD0000078F0218843103008A9087000BF00BF1B
:10CAE00008A8407801090901491C08A8417040784C
:10CAF000F0218843103008A9487000BF142103A812
:10CB0000FBF757FB15A8039008A804900821684676
:10CB10000183818217A103C90291019001A80790A6
:10CB200068882B1D03AA0AA9A2DF044600BF264677
:10CB3000002E06D000BF07A2CA213046FCF700F83D
:10CB400000BF00BF002016B070BD00000CE2010065
:10CB5000EFBE00002E2E5C2E2E5C2E2E5C626C75BD
:10CB6000656365726973745F736572766963652E58
:10CB700063000000123456781234567870B586B0CF
:10CB80000546184B0FCB01AC0FC417486946888285
:10CB9000163101A863DF044600BF2646002E06D0EA
:10CBA00000BF12A2E9213046FBF7CAFF00BF00BF59
:10CBB0000020C0432880AA1C05A90120A0DF04464C
:10CBC00000BF2646002E06D000BF08A2F321304643
:10CBD000FBF7B6FF00BF00BF2846FFF70DFF06B00A
:10CBE00070BD00001CE201000DF000002E2E5C2E36
:10CBF0002E5C2E2E5C626C75656365726973745F62
:10CC0000736572766963652E630000000246002139
:10CC100005E0505C002801D001207047491C06291E
:10CC2000F7D30020F9E7000010B504461C2161434A
:10CC3000124A8918084611300621FBF7BAFA1C215E
:10CC400061430E4A88181021FBF7B3FAFF211C201C
:10CC500060430A4A801801741C2060438018817662
:10CC60000021C9431C20604380180183204601F045
:10CC7000BFF90020A100024A505010BD0426002038
:10CC8000E8250020014605484056C017401C0028F2
:10CC900001D0012070470020FCE700005C27002045
:10CCA000014604484056042801DB0120704700205B
:10CCB000FCE700005C27002001460648405600289B
:10CCC00005DB04484056042801DA012070470020A3
:10CCD000FCE700005C2700200022D24301490A54EF
:10CCE000704700005C27002070B548DF044600BF95
:10CCF0002546002D07D000BF04A29F2189002846A9
:10CD0000FBF71EFF00BF00BF70BD00002E2E5C2E83
:10CD10002E5C2E2E5C6D61696E2E6300014600BF95
:10CD20000848006804221040002801D108207047FC
:10CD300000BF002901D10E20F9E7034840780860C0
:10CD40000020F4E7DC200020842700203CB50346C7
:10CD500000BF2548006804242040002801D1082095
:10CD60003CBD00BF002B01D10E20F9E7002A01D104
:10CD70000E20F5E71868022806D20C2418686043D4
:10CD80001A4C2058002801D10720E9E75C68186890
:10CD900001940090019C0C2518686843134D4019BC
:10CDA00000894843201801900C24009860432C46C9
:10CDB000001940890C25009C6C430C4D6419248992
:10CDC00060430C25009C6C43084D6419646800198D
:10CDD000019CA04201D80720C2E7019C0098546042
:10CDE00010600020BCE70000DC200020502800205C
:10CDF000FEB504460D4600BF4148006804210840C6
:10CE0000002801D10820FEBD00BF002C01D10E205A
:10CE1000F9E72068022806D20C21206848433949E6
:10CE20000858002801D10720EDE70C21206848436D
:10CE30003449401840890C2221685143314A8918ED
:10CE4000098948430C22216851432E4A89184968B0
:10CE500040186168884201D80720D4E76068FFF76E
:10CE600043F8002801D11020CDE70C232068584357
:10CE7000244BC01862684068101A00900C22206889
:10CE800050431A46801801890098FBF74FF9002992
:10CE900001D00720B7E70C2220685043194A8018B8
:10CEA00001892846FBF758F9002901D1002D01D14D
:10CEB0000720A8E70C21206848431249401806893A
:10CEC0000C22216851430F4A891849894E436068F2
:10CED00047190C21206848431146401840688019C2
:10CEE00001900198874201D907208CE700202B464A
:10CEF0000246214600900320FDF7FEF983E700007B
:10CF0000DC2000205028002070B508484469601CCF
:10CF1000002807D000F00CF8054629462046FBF70C
:10CF200005F970BD012000074069FAE70010001004
:10CF300001200007006980B27047000010B5FDF7BE
:10CF40001DFA002017490880FFF7DEFFC41EFFF717
:10CF5000EFFF44431448046000201449086000BFF8
:10CF60000DE000220C214143114B5A500C2141434A
:10CF7000C9180A810C214143C9184A81401C022862
:10CF8000EFD300200B4908700B4908600B4908607B
:10CF90000B490860094800680421084307490860F4
:10CFA000002010BDB8200020BC200020CC20002094
:10CFB00050280020C0200020D0200020DC200020AD
:10CFC000D4200020FFB581B00C4615461E4600BF98
:10CFD0003948006804210840002802D1082005B023
:10CFE000F0BD00BF002C01D10E20F8E70198002809
:10CFF00001D10E20F3E72068022806D20C21206818
:10D0000048432E490858002801D10720E7E70C21A2
:10D01000206848432949401840890C22216851431F
:10D02000264A8918098948430C2221685143234A1A
:10D030008918496840186168884201D80720CEE7FE
:10D04000002D07D00C21206848431C494018008956
:10D05000A84201DA0720C2E7A9190C222068504330
:10D06000164A80180089814201DD0720B7E7019840
:10D07000FEF73AFF002809D03046FEF735FF0028BA
:10D0800004D06068FEF730FF002801D11020A6E729
:10D09000606881192A460198FBF772F800950C2107
:10D0A0002068484305490F58002202212046019B71
:10D0B000B847002093E70000DC2000205028002023
:10D0C000F8B504460D4600BF3F48006804210840FB
:10D0D000002801D10820F8BD00BF002C01D10E208E
:10D0E000F9E7002D01D10E20F5E72068002801D1D5
:10D0F0000E20F0E7FFF71CFFA188884202DBA08822
:10D10000102801DA0720E6E7E08800280DD0FFF7B5
:10D11000FBFE471EFFF70CFF4743E088A18848430A
:10D120002A4909684018874201D20720D3E72079AD
:10D130008007800F002801D00720CCE72448008812
:10D14000022801D10420C6E72148008828601F4832
:10D15000006868601E4800880C2250431D4A8018F1
:10D16000696841601A4800880C225043194A2168B6
:10D170001150A188164800880C225043154A801887
:10D180000181E188124800880C225043114A80181E
:10D190004181FFF7CDFE0746A188E2885143481E32
:10D1A0003946FAF7D9FF461CFFF7C2FE704307491C
:10D1B000096840180549086005480088401C044972
:10D1C0000880002087E70000DC200020BC20002031
:10D1D000B820002050280020F8B504460E46154619
:10D1E0001F4600BF3248006804210840002801D1D2
:10D1F0000820F8BD00BF002E01D10E20F9E7002C59
:10D2000001D10E20F5E72068022806D20C21206803
:10D21000484328490858002801D10720E9E70C2194
:10D22000206848432349401840890C222168514313
:10D23000204A8918098948430C22216851431D4A14
:10D240008918496840186168884201D80720D0E7EA
:10D25000002D07D00C21206848431649401800894A
:10D26000A84201DA0720C4E7E9190C2220685043DC
:10D27000104A80180089814201DD0720B9E7304655
:10D28000FEF732FE002809D03846FEF72DFE0028B2
:10D2900004D06068FEF728FE002801D11020A8E71E
:10D2A0002B463246214601200097FDF725F8A0E7DE
:10D2B000DC2000205028002010B504460F480078DC
:10D2C000002819D00D480078042815D0022C02D06F
:10D2D000032C0FD102E0FEF76FFA0CE0084800685B
:10D2E00008210840002802D1FEF746FA01E0FEF7C7
:10D2F00063FA00E000BF00BF10BD0000C0200020A6
:10D30000DC200020F8B504460E4615461F4600BF37
:10D310003248006804210840002801D10820F8BDE7
:10D3200000BF002E01D10E20F9E7002C01D10E2004
:10D33000F5E72068022806D20C21206848432849D6
:10D340000858002801D10720E9E70C21206848434C
:10D350002349401840890C2221685143204A8918EA
:10D36000098948430C22216851431D4A891849689C
:10D3700040186168884201D80720D0E7002D07D007
:10D380000C2120684843164940180089A84201DA58
:10D390000720C4E7E9190C2220685043104A80187E
:10D3A0000089814201DD0720B9E73046FEF79CFD88
:10D3B000002809D03846FEF797FD002804D06068A1
:10D3C000FEF792FD002801D11020A8E72B46324637
:10D3D000214604200097FCF78FFFA0E7DC20002007
:10D3E00050280020014800687047000024200020D9
:10D3F00001484068704700000015014010B5044620
:10D400000348846003211120FBF77CF910BD000064
:10D410000015014010B5012000040A49486009497F
:10D42000403948601120FBF701F91120FBF716F98C
:10D430000120054908602F20FAF74CFE012003491E
:10D44000087010BD40130140001001402C21002045
:10D4500010B51120002815DBC206D20E0121914023
:10D46000164A116000BF00BF00BFBFF34F8F00BF5F
:10D4700000BF00BF00BF00BF00BFBFF36F8F00BF82
:10D4800000BF00BF00BF012000040D4988600C49A7
:10D490004039886001200B4948602F20FAF71AFEB6
:10D4A0000120084988600020074908602F20FAF70A
:10D4B00011FE00200549087010BD000080E100E069
:10D4C0004013014000100140182100202C210020B1
:10D4D000FEB507460E461446B86A002801D107205B
:10D4E000FEBD0020019032E0B96A0C220198504341
:10D4F0000D182879801CC0B200900098401CC1B261
:10D500002278501C2070B15416212278501C2070B3
:10D51000B15422789119288800F05CFD21784018D8
:10D520002070A88800280EDDA868002801D10720F7
:10D53000D6E7AA8823789819A968FAF721FE2078F7
:10D540002979401820700198401CC0B201902C200D
:10D55000C15D01988142C7DC0020C1E710B50248D7
:10D56000FFF70CFB10BD00004C21002001490860B2
:10D57000704700002420002070B50020FCF71CFA42
:10D58000044600BF2546002D07D000BF13A2FF218F
:10D5900060312846FBF7D4FA00BF00BFFCF706F95C
:10D5A000044600BF2546002D07D000BF0BA2FF2177
:10D5B00064312846FBF7C4FA00BF00BF3CDF0446D5
:10D5C00000BF2546002D07D000BF04A2FF2168310F
:10D5D0002846FBF7B5FA00BF00BF70BD2E2E5C2EAB
:10D5E0002E5C2E2E5C6D61696E2E630010B50446B4
:10D5F0000248047000F00AF910BD0000C0200020AD
:10D6000070B506460C46154629462046C046C0461B
:10D6100070BD00000146002901D10E20704702486C
:10D6200001600020FAE7000040210020FFB581B032
:10D630000C4616461F46002C02D1072005B0F0BD4F
:10D6400020468107890F002901D1012100E0002136
:10D65000002901D10720F1E7094804600948068044
:10D66000094807600949019810DF0546002D01D0DF
:10D670002846E3E701200649087016202EDFDDE783
:10D68000382100203C2100203021002001D601005B
:10D69000342100200146002901D10E2070470248A4
:10D6A00001600020FAE70000442100200146C8780C
:10D6B000002801D0072070470020FCE710B50020AB
:10D6C0001049486001201049C86004200D490861D4
:10D6D000002088607D20C0000A49403108600A4966
:10D6E000152292018918486007498918886003202B
:10D6F0000004064948600A20FAF7A4FF0120024905
:10D70000086010BD00A5004000A0004000A300403C
:10D710007CB5044601A90020FCF7C4F8054600BF0B
:10D72000002D01D028467CBD00BF69460120FCF7D2
:10D73000B9F8054600BF002D01D02846F3E700BF29
:10D7400068460078002802D00220207008E0684671
:10D750000079002802D00B20207001E0002020700A
:10D760000020E0E710B502480068FEF73DF810BD64
:10D77000CC200020F8B521480068400840001F492F
:10D7800008601F480078142148431D49091D4418AA
:10D79000E568FFF7CDFB014600902846FAF7C6FC86
:10D7A000064618480660FFF7C3FB009061884919D8
:10D7B000481E0099FAF7BAFC0746BE4206D10F4848
:10D7C0000068022108430D49086005E00B48006825
:10D7D00002218843094908600B480068002809D1E4
:10D7E0000648006802210840002803D1022000F00A
:10D7F0007FF902E0002000F07BF9F8BDDC2000207A
:10D8000084270020CC200020C420002010B50D4823
:10D810000078002806D0012807D0022808D0032865
:10D820000CD108E000F018F809E000F067F806E015
:10D83000FFF7A0FF03E0FFF795FF00E000BF00BF88
:10D8400010BD0000C020002010B502480068FDF7A0
:10D85000CBFF10BDCC20002010B50020034908608C
:10D8600003490860FCF720FD10BD0000D020002017
:10D87000D420002070B5FFF747FB461EFFF758FB8A
:10D8800046433446FFF754FB05490968491E48439F
:10D8900005460448214602682846FDF7ADFF70BDE5
:10D8A000CC200020C4200020F8B5124800781421B4
:10D8B00048431049091D4418E568FFF739FB06463F
:10D8C00061884919A28888183146FAF72FFC00911F
:10D8D000FFF71AFB471EFFF72BFB474300983E1844
:10D8E00061884919A288881803490A683146FDF7FA
:10D8F00083FFF8BD84270020C820002010B500F069
:10D900005DF810BDF8B5FFF713FB0646FFF7FCFA0C
:10D91000471EFFF70DFB47433D4631462846FAF7C1
:10D9200005FC0446FDF760FFF8BD0000F8B5FFF701
:10D93000FFFA8408FFF7FCFA0849096848430546DE
:10D94000FFF7E2FA471EFFF7F3FA47433E46224647
:10D9500029463046FDF750FFF8BD0000CC200020DE
:10D9600010B500201049486001201049C86004200B
:10D970000D490861002088607D20C0000A494031BF
:10D9800008600A49152292018918486007498918D8
:10D99000886003200004064948600A20FAF752FE16
:10D9A00001200249486010BD00A5004000A00040D1
:10D9B00000A3004010B50446002010BD70B5164805
:10D9C0000078142148431449091D4418FFF7B0FAA0
:10D9D0006188884214DAFFF7ABFA61880D1AFFF705
:10D9E000A7FA8608A388E268D2185019226951194B
:10D9F0003246FDF701FFFFF79BFA084908600AE08D
:10DA0000A588E368581963889A082169FDF7F4FE30
:10DA100060880249086070BD84270020D42000205F
:10DA200010B50120FFF7E2FD10BD000010B50F4852
:10DA3000006808210840002814D10D4800781421FE
:10DA400048430B49091D441860880A490988401A4F
:10DA500060806088002802D1FCF7A0FC01E0FFF79D
:10DA6000ADFF01E0FEF7E2FB10BD0000DC2000206E
:10DA700084270020D420002010B506480068082123
:10DA80000840002803D1012000F032F801E000F046
:10DA900013F810BDDC20002010B5FCF7CDFB10BD45
:10DAA00010B5034909788900024A5058804710BDD3
:10DAB000C120002078E2010010B505480068082167
:10DAC0008843034908600348007800F011F810BD4E
:10DAD000DC200020C120002010B50349097889000E
